{
  "_format": "hh-sol-artifact-1",
  "contractName": "AucEngine",
  "sourceName": "contracts/AucEngine.sol",
  "abi": [
    {
      "inputs": [],
      "stateMutability": "nonpayable",
      "type": "constructor"
    },
    {
      "anonymous": false,
      "inputs": [
        {
          "indexed": false,
          "internalType": "uint256",
          "name": "index",
          "type": "uint256"
        },
        {
          "indexed": false,
          "internalType": "string",
          "name": "itemName",
          "type": "string"
        },
        {
          "indexed": false,
          "internalType": "uint256",
          "name": "startingPrice",
          "type": "uint256"
        },
        {
          "indexed": false,
          "internalType": "uint256",
          "name": "duration",
          "type": "uint256"
        }
      ],
      "name": "AuctionCreated",
      "type": "event"
    },
    {
      "anonymous": false,
      "inputs": [
        {
          "indexed": false,
          "internalType": "uint256",
          "name": "index",
          "type": "uint256"
        },
        {
          "indexed": false,
          "internalType": "uint256",
          "name": "price",
          "type": "uint256"
        },
        {
          "indexed": false,
          "internalType": "address",
          "name": "winner",
          "type": "address"
        }
      ],
      "name": "AuctionEnded",
      "type": "event"
    },
    {
      "inputs": [
        {
          "internalType": "uint256",
          "name": "",
          "type": "uint256"
        }
      ],
      "name": "auctions",
      "outputs": [
        {
          "internalType": "address payable",
          "name": "seller",
          "type": "address"
        },
        {
          "internalType": "uint256",
          "name": "startingPrice",
          "type": "uint256"
        },
        {
          "internalType": "uint256",
          "name": "finalPrice",
          "type": "uint256"
        },
        {
          "internalType": "uint256",
          "name": "startAt",
          "type": "uint256"
        },
        {
          "internalType": "uint256",
          "name": "endsAt",
          "type": "uint256"
        },
        {
          "internalType": "uint256",
          "name": "discountRate",
          "type": "uint256"
        },
        {
          "internalType": "string",
          "name": "item",
          "type": "string"
        },
        {
          "internalType": "bool",
          "name": "stopped",
          "type": "bool"
        }
      ],
      "stateMutability": "view",
      "type": "function"
    },
    {
      "inputs": [
        {
          "internalType": "uint256",
          "name": "index",
          "type": "uint256"
        }
      ],
      "name": "buy",
      "outputs": [],
      "stateMutability": "payable",
      "type": "function"
    },
    {
      "inputs": [
        {
          "internalType": "uint256",
          "name": "_startPrice",
          "type": "uint256"
        },
        {
          "internalType": "uint256",
          "name": "_discountRate",
          "type": "uint256"
        },
        {
          "internalType": "string",
          "name": "_item",
          "type": "string"
        },
        {
          "internalType": "uint256",
          "name": "_duration",
          "type": "uint256"
        }
      ],
      "name": "createAuction",
      "outputs": [],
      "stateMutability": "nonpayable",
      "type": "function"
    },
    {
      "inputs": [
        {
          "internalType": "uint256",
          "name": "index",
          "type": "uint256"
        }
      ],
      "name": "getPrice",
      "outputs": [
        {
          "internalType": "uint256",
          "name": "",
          "type": "uint256"
        }
      ],
      "stateMutability": "view",
      "type": "function"
    },
    {
      "inputs": [],
      "name": "owner",
      "outputs": [
        {
          "internalType": "address",
          "name": "",
          "type": "address"
        }
      ],
      "stateMutability": "view",
      "type": "function"
    },
    {
      "inputs": [
        {
          "internalType": "address payable",
          "name": "_to",
          "type": "address"
        }
      ],
      "name": "withdraw",
      "outputs": [],
      "stateMutability": "nonpayable",
      "type": "function"
    }
  ],
  "bytecode": "0x608060405234801561001057600080fd5b50336000806101000a81548173ffffffffffffffffffffffffffffffffffffffff021916908373ffffffffffffffffffffffffffffffffffffffff160217905550611521806100606000396000f3fe6080604052600436106100555760003560e01c806351cff8d91461005a578063571a26a0146100835780638da5cb5b146100c7578063d96a094a146100f2578063e75722301461010e578063e9835d151461014b575b600080fd5b34801561006657600080fd5b50610081600480360381019061007c9190610a77565b610174565b005b34801561008f57600080fd5b506100aa60048036038101906100a59190610ada565b61024c565b6040516100be989796959493929190610bd0565b60405180910390f35b3480156100d357600080fd5b506100dc610359565b6040516100e99190610c76565b60405180910390f35b61010c60048036038101906101079190610ada565b61037d565b005b34801561011a57600080fd5b5061013560048036038101906101309190610ada565b6105e1565b6040516101429190610c91565b60405180910390f35b34801561015757600080fd5b50610172600480360381019061016d9190610d11565b6107d0565b005b60008054906101000a900473ffffffffffffffffffffffffffffffffffffffff1673ffffffffffffffffffffffffffffffffffffffff163373ffffffffffffffffffffffffffffffffffffffff1614610202576040517f08c379a00000000000000000000000000000000000000000000000000000000081526004016101f990610de5565b60405180910390fd5b8073ffffffffffffffffffffffffffffffffffffffff166108fc479081150290604051600060405180830381858888f19350505050158015610248573d6000803e3d6000fd5b5050565b6001818154811061025c57600080fd5b90600052602060002090600802016000915090508060000160009054906101000a900473ffffffffffffffffffffffffffffffffffffffff16908060010154908060020154908060030154908060040154908060050154908060060180546102c390610e34565b80601f01602080910402602001604051908101604052809291908181526020018280546102ef90610e34565b801561033c5780601f106103115761010080835404028352916020019161033c565b820191906000526020600020905b81548152906001019060200180831161031f57829003601f168201915b5050505050908060070160009054906101000a900460ff16905088565b60008054906101000a900473ffffffffffffffffffffffffffffffffffffffff1681565b60006001828154811061039357610392610e65565b5b906000526020600020906008020190508060070160009054906101000a900460ff16156103f5576040517f08c379a00000000000000000000000000000000000000000000000000000000081526004016103ec90610ee0565b60405180910390fd5b8060040154421061043b576040517f08c379a000000000000000000000000000000000000000000000000000000000815260040161043290610f4c565b60405180910390fd5b6000610446836105e1565b90508034101561048b576040517f08c379a000000000000000000000000000000000000000000000000000000000815260040161048290610fb8565b60405180910390fd5b60018260070160006101000a81548160ff021916908315150217905550808260020181905550600081346104bf9190611007565b90506000811115610512573373ffffffffffffffffffffffffffffffffffffffff166108fc829081150290604051600060405180830381858888f19350505050158015610510573d6000803e3d6000fd5b505b8260000160009054906101000a900473ffffffffffffffffffffffffffffffffffffffff1673ffffffffffffffffffffffffffffffffffffffff166108fc6064600a8561055f919061103b565b61056991906110ac565b846105749190611007565b9081150290604051600060405180830381858888f1935050505015801561059f573d6000803e3d6000fd5b507fbafc4bda865d4d1f8d5b16f883e996fde0fe71112fac81503876d353756944008483336040516105d3939291906110dd565b60405180910390a150505050565b600080600183815481106105f8576105f7610e65565b5b9060005260206000209060080201604051806101000160405290816000820160009054906101000a900473ffffffffffffffffffffffffffffffffffffffff1673ffffffffffffffffffffffffffffffffffffffff1673ffffffffffffffffffffffffffffffffffffffff16815260200160018201548152602001600282015481526020016003820154815260200160048201548152602001600582015481526020016006820180546106aa90610e34565b80601f01602080910402602001604051908101604052809291908181526020018280546106d690610e34565b80156107235780601f106106f857610100808354040283529160200191610723565b820191906000526020600020905b81548152906001019060200180831161070657829003601f168201915b505050505081526020016007820160009054906101000a900460ff16151515158152505090508060e001511561078e576040517f08c379a000000000000000000000000000000000000000000000000000000000815260040161078590610ee0565b60405180910390fd5b60008160600151426107a09190611007565b90506000818360a001516107b4919061103b565b90508083602001516107c69190611007565b9350505050919050565b60008082146107df57816107e4565b6202a3005b905080856107f2919061103b565b861015610834576040517f08c379a000000000000000000000000000000000000000000000000000000000815260040161082b90611160565b60405180910390fd5b60006040518061010001604052803373ffffffffffffffffffffffffffffffffffffffff168152602001888152602001888152602001428152602001834261087c9190611180565b815260200187815260200186868080601f016020809104026020016040519081016040528093929190818152602001838380828437600081840152601f19601f820116905080830192505050505050508152602001600015158152509050600181908060018154018082558091505060019003906000526020600020906008020160009091909190915060008201518160000160006101000a81548173ffffffffffffffffffffffffffffffffffffffff021916908373ffffffffffffffffffffffffffffffffffffffff1602179055506020820151816001015560408201518160020155606082015181600301556080820151816004015560a0820151816005015560c0820151816006019081610994919061138f565b5060e08201518160070160006101000a81548160ff02191690831515021790555050507f5bf34ed94988e5dcdc7d1faaa54eb1d3b55f45d5f11457e235afb21a8ebbe73c600180805490506109e99190611007565b86868a866040516109fe95949392919061149d565b60405180910390a150505050505050565b600080fd5b600080fd5b600073ffffffffffffffffffffffffffffffffffffffff82169050919050565b6000610a4482610a19565b9050919050565b610a5481610a39565b8114610a5f57600080fd5b50565b600081359050610a7181610a4b565b92915050565b600060208284031215610a8d57610a8c610a0f565b5b6000610a9b84828501610a62565b91505092915050565b6000819050919050565b610ab781610aa4565b8114610ac257600080fd5b50565b600081359050610ad481610aae565b92915050565b600060208284031215610af057610aef610a0f565b5b6000610afe84828501610ac5565b91505092915050565b610b1081610a39565b82525050565b610b1f81610aa4565b82525050565b600081519050919050565b600082825260208201905092915050565b60005b83811015610b5f578082015181840152602081019050610b44565b60008484015250505050565b6000601f19601f8301169050919050565b6000610b8782610b25565b610b918185610b30565b9350610ba1818560208601610b41565b610baa81610b6b565b840191505092915050565b60008115159050919050565b610bca81610bb5565b82525050565b600061010082019050610be6600083018b610b07565b610bf3602083018a610b16565b610c006040830189610b16565b610c0d6060830188610b16565b610c1a6080830187610b16565b610c2760a0830186610b16565b81810360c0830152610c398185610b7c565b9050610c4860e0830184610bc1565b9998505050505050505050565b6000610c6082610a19565b9050919050565b610c7081610c55565b82525050565b6000602082019050610c8b6000830184610c67565b92915050565b6000602082019050610ca66000830184610b16565b92915050565b600080fd5b600080fd5b600080fd5b60008083601f840112610cd157610cd0610cac565b5b8235905067ffffffffffffffff811115610cee57610ced610cb1565b5b602083019150836001820283011115610d0a57610d09610cb6565b5b9250929050565b600080600080600060808688031215610d2d57610d2c610a0f565b5b6000610d3b88828901610ac5565b9550506020610d4c88828901610ac5565b945050604086013567ffffffffffffffff811115610d6d57610d6c610a14565b5b610d7988828901610cbb565b93509350506060610d8c88828901610ac5565b9150509295509295909350565b7f596f7520617265206e6f74206f776e6572000000000000000000000000000000600082015250565b6000610dcf601183610b30565b9150610dda82610d99565b602082019050919050565b60006020820190508181036000830152610dfe81610dc2565b9050919050565b7f4e487b7100000000000000000000000000000000000000000000000000000000600052602260045260246000fd5b60006002820490506001821680610e4c57607f821691505b602082108103610e5f57610e5e610e05565b5b50919050565b7f4e487b7100000000000000000000000000000000000000000000000000000000600052603260045260246000fd5b7f73746f7070656421000000000000000000000000000000000000000000000000600082015250565b6000610eca600883610b30565b9150610ed582610e94565b602082019050919050565b60006020820190508181036000830152610ef981610ebd565b9050919050565b7f656e646564210000000000000000000000000000000000000000000000000000600082015250565b6000610f36600683610b30565b9150610f4182610f00565b602082019050919050565b60006020820190508181036000830152610f6581610f29565b9050919050565b7f6e6f7420656e6f7567682066756e647321000000000000000000000000000000600082015250565b6000610fa2601183610b30565b9150610fad82610f6c565b602082019050919050565b60006020820190508181036000830152610fd181610f95565b9050919050565b7f4e487b7100000000000000000000000000000000000000000000000000000000600052601160045260246000fd5b600061101282610aa4565b915061101d83610aa4565b925082820390508181111561103557611034610fd8565b5b92915050565b600061104682610aa4565b915061105183610aa4565b925082820261105f81610aa4565b9150828204841483151761107657611075610fd8565b5b5092915050565b7f4e487b7100000000000000000000000000000000000000000000000000000000600052601260045260246000fd5b60006110b782610aa4565b91506110c283610aa4565b9250826110d2576110d161107d565b5b828204905092915050565b60006060820190506110f26000830186610b16565b6110ff6020830185610b16565b61110c6040830184610c67565b949350505050565b7f696e636f7272656374207374617274696e672070726963650000000000000000600082015250565b600061114a601883610b30565b915061115582611114565b602082019050919050565b600060208201905081810360008301526111798161113d565b9050919050565b600061118b82610aa4565b915061119683610aa4565b92508282019050808211156111ae576111ad610fd8565b5b92915050565b7f4e487b7100000000000000000000000000000000000000000000000000000000600052604160045260246000fd5b60008190508160005260206000209050919050565b60006020601f8301049050919050565b600082821b905092915050565b6000600883026112457fffffffffffffffffffffffffffffffffffffffffffffffffffffffffffffffff82611208565b61124f8683611208565b95508019841693508086168417925050509392505050565b6000819050919050565b600061128c61128761128284610aa4565b611267565b610aa4565b9050919050565b6000819050919050565b6112a683611271565b6112ba6112b282611293565b848454611215565b825550505050565b600090565b6112cf6112c2565b6112da81848461129d565b505050565b5b818110156112fe576112f36000826112c7565b6001810190506112e0565b5050565b601f82111561134357611314816111e3565b61131d846111f8565b8101602085101561132c578190505b611340611338856111f8565b8301826112df565b50505b505050565b600082821c905092915050565b600061136660001984600802611348565b1980831691505092915050565b600061137f8383611355565b9150826002028217905092915050565b61139882610b25565b67ffffffffffffffff8111156113b1576113b06111b4565b5b6113bb8254610e34565b6113c6828285611302565b600060209050601f8311600181146113f957600084156113e7578287015190505b6113f18582611373565b865550611459565b601f198416611407866111e3565b60005b8281101561142f5784890151825560018201915060208501945060208101905061140a565b8683101561144c5784890151611448601f891682611355565b8355505b6001600288020188555050505b505050505050565b82818337600083830152505050565b600061147c8385610b30565b9350611489838584611461565b61149283610b6b565b840190509392505050565b60006080820190506114b26000830188610b16565b81810360208301526114c5818688611470565b90506114d46040830185610b16565b6114e16060830184610b16565b969550505050505056fea26469706673582212205df58e72088250ea369221571f6aaf1d82f18e5dc6f89b7f5de5fac9ff9fa26964736f6c63430008130033",
  "linkReferences": {},
  "deployedLinkReferences": {}
}