{
  "_format": "hh-sol-artifact-1",
  "contractName": "AucEngine",
  "sourceName": "contracts/AucEngine.sol",
  "abi": [
    {
      "inputs": [],
      "stateMutability": "nonpayable",
      "type": "constructor"
    },
    {
      "anonymous": false,
      "inputs": [
        {
          "indexed": false,
          "internalType": "string",
          "name": "itemName",
          "type": "string"
        },
        {
          "indexed": false,
          "internalType": "uint256",
          "name": "startingPrice",
          "type": "uint256"
        },
        {
          "indexed": false,
          "internalType": "uint256",
          "name": "duration",
          "type": "uint256"
        }
      ],
      "name": "AuctionCreated",
      "type": "event"
    },
    {
      "anonymous": false,
      "inputs": [
        {
          "indexed": false,
          "internalType": "string",
          "name": "item",
          "type": "string"
        },
        {
          "indexed": false,
          "internalType": "uint256",
          "name": "price",
          "type": "uint256"
        },
        {
          "indexed": false,
          "internalType": "address",
          "name": "winner",
          "type": "address"
        }
      ],
      "name": "AuctionEnded",
      "type": "event"
    },
    {
      "inputs": [
        {
          "internalType": "string",
          "name": "",
          "type": "string"
        }
      ],
      "name": "auctions",
      "outputs": [
        {
          "internalType": "address payable",
          "name": "seller",
          "type": "address"
        },
        {
          "internalType": "uint256",
          "name": "startingPrice",
          "type": "uint256"
        },
        {
          "internalType": "uint256",
          "name": "finalPrice",
          "type": "uint256"
        },
        {
          "internalType": "uint256",
          "name": "startAt",
          "type": "uint256"
        },
        {
          "internalType": "uint256",
          "name": "endsAt",
          "type": "uint256"
        },
        {
          "internalType": "uint256",
          "name": "discountRate",
          "type": "uint256"
        },
        {
          "internalType": "string",
          "name": "item",
          "type": "string"
        },
        {
          "internalType": "bool",
          "name": "stopped",
          "type": "bool"
        }
      ],
      "stateMutability": "view",
      "type": "function"
    },
    {
      "inputs": [
        {
          "internalType": "string",
          "name": "item",
          "type": "string"
        }
      ],
      "name": "buy",
      "outputs": [],
      "stateMutability": "payable",
      "type": "function"
    },
    {
      "inputs": [
        {
          "internalType": "uint256",
          "name": "_startPrice",
          "type": "uint256"
        },
        {
          "internalType": "uint256",
          "name": "_discountRate",
          "type": "uint256"
        },
        {
          "internalType": "string",
          "name": "_item",
          "type": "string"
        },
        {
          "internalType": "uint256",
          "name": "_duration",
          "type": "uint256"
        }
      ],
      "name": "createAuction",
      "outputs": [],
      "stateMutability": "nonpayable",
      "type": "function"
    },
    {
      "inputs": [
        {
          "internalType": "string",
          "name": "item",
          "type": "string"
        }
      ],
      "name": "getPrice",
      "outputs": [
        {
          "internalType": "uint256",
          "name": "",
          "type": "uint256"
        }
      ],
      "stateMutability": "view",
      "type": "function"
    },
    {
      "inputs": [],
      "name": "owner",
      "outputs": [
        {
          "internalType": "address",
          "name": "",
          "type": "address"
        }
      ],
      "stateMutability": "view",
      "type": "function"
    },
    {
      "inputs": [
        {
          "internalType": "address payable",
          "name": "_to",
          "type": "address"
        }
      ],
      "name": "withdraw",
      "outputs": [],
      "stateMutability": "nonpayable",
      "type": "function"
    }
  ],
  "bytecode": "0x608060405234801561001057600080fd5b50336000806101000a81548173ffffffffffffffffffffffffffffffffffffffff021916908373ffffffffffffffffffffffffffffffffffffffff160217905550611676806100606000396000f3fe6080604052600436106100555760003560e01c8063492cc7691461005a57806351cff8d914610076578063524f38891461009f5780638da5cb5b146100dc578063b76b161814610107578063e9835d151461014b575b600080fd5b610074600480360381019061006f9190610b4b565b610174565b005b34801561008257600080fd5b5061009d60048036038101906100989190610bf2565b6103d4565b005b3480156100ab57600080fd5b506100c660048036038101906100c19190610b4b565b6104ac565b6040516100d39190610c38565b60405180910390f35b3480156100e857600080fd5b506100f1610697565b6040516100fe9190610c74565b60405180910390f35b34801561011357600080fd5b5061012e60048036038101906101299190610b4b565b6106bb565b604051610142989796959493929190610d38565b60405180910390f35b34801561015757600080fd5b50610172600480360381019061016d9190610e49565b6107ce565b005b60006001826040516101869190610f0d565b908152602001604051809103902090508060070160009054906101000a900460ff16156101e8576040517f08c379a00000000000000000000000000000000000000000000000000000000081526004016101df90610f70565b60405180910390fd5b8060040154421061022e576040517f08c379a000000000000000000000000000000000000000000000000000000000815260040161022590610fdc565b60405180910390fd5b6000610239836104ac565b90508034101561027e576040517f08c379a000000000000000000000000000000000000000000000000000000000815260040161027590611048565b60405180910390fd5b60018260070160006101000a81548160ff021916908315150217905550808260020181905550600081346102b29190611097565b90506000811115610305573373ffffffffffffffffffffffffffffffffffffffff166108fc829081150290604051600060405180830381858888f19350505050158015610303573d6000803e3d6000fd5b505b8260000160009054906101000a900473ffffffffffffffffffffffffffffffffffffffff1673ffffffffffffffffffffffffffffffffffffffff166108fc6064600a8561035291906110cb565b61035c919061113c565b846103679190611097565b9081150290604051600060405180830381858888f19350505050158015610392573d6000803e3d6000fd5b507fca710b87c67c933e15acc543d30afa51786ee798aa29d695bf06454822b2bbef8483336040516103c69392919061116d565b60405180910390a150505050565b60008054906101000a900473ffffffffffffffffffffffffffffffffffffffff1673ffffffffffffffffffffffffffffffffffffffff163373ffffffffffffffffffffffffffffffffffffffff1614610462576040517f08c379a0000000000000000000000000000000000000000000000000000000008152600401610459906111f7565b60405180910390fd5b8073ffffffffffffffffffffffffffffffffffffffff166108fc479081150290604051600060405180830381858888f193505050501580156104a8573d6000803e3d6000fd5b5050565b6000806001836040516104bf9190610f0d565b9081526020016040518091039020604051806101000160405290816000820160009054906101000a900473ffffffffffffffffffffffffffffffffffffffff1673ffffffffffffffffffffffffffffffffffffffff1673ffffffffffffffffffffffffffffffffffffffff168152602001600182015481526020016002820154815260200160038201548152602001600482015481526020016005820154815260200160068201805461057190611246565b80601f016020809104026020016040519081016040528092919081815260200182805461059d90611246565b80156105ea5780601f106105bf576101008083540402835291602001916105ea565b820191906000526020600020905b8154815290600101906020018083116105cd57829003601f168201915b505050505081526020016007820160009054906101000a900460ff16151515158152505090508060e0015115610655576040517f08c379a000000000000000000000000000000000000000000000000000000000815260040161064c90610f70565b60405180910390fd5b60008160600151426106679190611097565b90506000818360a0015161067b91906110cb565b905080836020015161068d9190611097565b9350505050919050565b60008054906101000a900473ffffffffffffffffffffffffffffffffffffffff1681565b6001818051602081018201805184825260208301602085012081835280955050505050506000915090508060000160009054906101000a900473ffffffffffffffffffffffffffffffffffffffff169080600101549080600201549080600301549080600401549080600501549080600601805461073890611246565b80601f016020809104026020016040519081016040528092919081815260200182805461076490611246565b80156107b15780601f10610786576101008083540402835291602001916107b1565b820191906000526020600020905b81548152906001019060200180831161079457829003601f168201915b5050505050908060070160009054906101000a900460ff16905088565b60008082146107dd57816107e2565b6202a3005b905080856107f091906110cb565b861015610832576040517f08c379a0000000000000000000000000000000000000000000000000000000008152600401610829906112c3565b60405180910390fd5b60006040518061010001604052803373ffffffffffffffffffffffffffffffffffffffff168152602001888152602001888152602001428152602001834261087a91906112e3565b815260200187815260200186868080601f016020809104026020016040519081016040528093929190818152602001838380828437600081840152601f19601f82011690508083019250505050505050815260200160001515815250905080600186866040516108eb92919061133c565b908152602001604051809103902060008201518160000160006101000a81548173ffffffffffffffffffffffffffffffffffffffff021916908373ffffffffffffffffffffffffffffffffffffffff1602179055506020820151816001015560408201518160020155606082015181600301556080820151816004015560a0820151816005015560c08201518160060190816109879190611501565b5060e08201518160070160006101000a81548160ff0219169083151502179055509050507f4418bf6763e0c7a45e84a76e54be8f577f78fad7e3467eaa04489e51b292073e858589856040516109e09493929190611600565b60405180910390a150505050505050565b6000604051905090565b600080fd5b600080fd5b600080fd5b600080fd5b6000601f19601f8301169050919050565b7f4e487b7100000000000000000000000000000000000000000000000000000000600052604160045260246000fd5b610a5882610a0f565b810181811067ffffffffffffffff82111715610a7757610a76610a20565b5b80604052505050565b6000610a8a6109f1565b9050610a968282610a4f565b919050565b600067ffffffffffffffff821115610ab657610ab5610a20565b5b610abf82610a0f565b9050602081019050919050565b82818337600083830152505050565b6000610aee610ae984610a9b565b610a80565b905082815260208101848484011115610b0a57610b09610a0a565b5b610b15848285610acc565b509392505050565b600082601f830112610b3257610b31610a05565b5b8135610b42848260208601610adb565b91505092915050565b600060208284031215610b6157610b606109fb565b5b600082013567ffffffffffffffff811115610b7f57610b7e610a00565b5b610b8b84828501610b1d565b91505092915050565b600073ffffffffffffffffffffffffffffffffffffffff82169050919050565b6000610bbf82610b94565b9050919050565b610bcf81610bb4565b8114610bda57600080fd5b50565b600081359050610bec81610bc6565b92915050565b600060208284031215610c0857610c076109fb565b5b6000610c1684828501610bdd565b91505092915050565b6000819050919050565b610c3281610c1f565b82525050565b6000602082019050610c4d6000830184610c29565b92915050565b6000610c5e82610b94565b9050919050565b610c6e81610c53565b82525050565b6000602082019050610c896000830184610c65565b92915050565b610c9881610bb4565b82525050565b600081519050919050565b600082825260208201905092915050565b60005b83811015610cd8578082015181840152602081019050610cbd565b60008484015250505050565b6000610cef82610c9e565b610cf98185610ca9565b9350610d09818560208601610cba565b610d1281610a0f565b840191505092915050565b60008115159050919050565b610d3281610d1d565b82525050565b600061010082019050610d4e600083018b610c8f565b610d5b602083018a610c29565b610d686040830189610c29565b610d756060830188610c29565b610d826080830187610c29565b610d8f60a0830186610c29565b81810360c0830152610da18185610ce4565b9050610db060e0830184610d29565b9998505050505050505050565b610dc681610c1f565b8114610dd157600080fd5b50565b600081359050610de381610dbd565b92915050565b600080fd5b600080fd5b60008083601f840112610e0957610e08610a05565b5b8235905067ffffffffffffffff811115610e2657610e25610de9565b5b602083019150836001820283011115610e4257610e41610dee565b5b9250929050565b600080600080600060808688031215610e6557610e646109fb565b5b6000610e7388828901610dd4565b9550506020610e8488828901610dd4565b945050604086013567ffffffffffffffff811115610ea557610ea4610a00565b5b610eb188828901610df3565b93509350506060610ec488828901610dd4565b9150509295509295909350565b600081905092915050565b6000610ee782610c9e565b610ef18185610ed1565b9350610f01818560208601610cba565b80840191505092915050565b6000610f198284610edc565b915081905092915050565b7f73746f7070656421000000000000000000000000000000000000000000000000600082015250565b6000610f5a600883610ca9565b9150610f6582610f24565b602082019050919050565b60006020820190508181036000830152610f8981610f4d565b9050919050565b7f656e646564210000000000000000000000000000000000000000000000000000600082015250565b6000610fc6600683610ca9565b9150610fd182610f90565b602082019050919050565b60006020820190508181036000830152610ff581610fb9565b9050919050565b7f6e6f7420656e6f7567682066756e647321000000000000000000000000000000600082015250565b6000611032601183610ca9565b915061103d82610ffc565b602082019050919050565b6000602082019050818103600083015261106181611025565b9050919050565b7f4e487b7100000000000000000000000000000000000000000000000000000000600052601160045260246000fd5b60006110a282610c1f565b91506110ad83610c1f565b92508282039050818111156110c5576110c4611068565b5b92915050565b60006110d682610c1f565b91506110e183610c1f565b92508282026110ef81610c1f565b9150828204841483151761110657611105611068565b5b5092915050565b7f4e487b7100000000000000000000000000000000000000000000000000000000600052601260045260246000fd5b600061114782610c1f565b915061115283610c1f565b9250826111625761116161110d565b5b828204905092915050565b600060608201905081810360008301526111878186610ce4565b90506111966020830185610c29565b6111a36040830184610c65565b949350505050565b7f596f7520617265206e6f74206f776e6572000000000000000000000000000000600082015250565b60006111e1601183610ca9565b91506111ec826111ab565b602082019050919050565b60006020820190508181036000830152611210816111d4565b9050919050565b7f4e487b7100000000000000000000000000000000000000000000000000000000600052602260045260246000fd5b6000600282049050600182168061125e57607f821691505b60208210810361127157611270611217565b5b50919050565b7f696e636f7272656374207374617274696e672070726963650000000000000000600082015250565b60006112ad601883610ca9565b91506112b882611277565b602082019050919050565b600060208201905081810360008301526112dc816112a0565b9050919050565b60006112ee82610c1f565b91506112f983610c1f565b925082820190508082111561131157611310611068565b5b92915050565b60006113238385610ed1565b9350611330838584610acc565b82840190509392505050565b6000611349828486611317565b91508190509392505050565b60008190508160005260206000209050919050565b60006020601f8301049050919050565b600082821b905092915050565b6000600883026113b77fffffffffffffffffffffffffffffffffffffffffffffffffffffffffffffffff8261137a565b6113c1868361137a565b95508019841693508086168417925050509392505050565b6000819050919050565b60006113fe6113f96113f484610c1f565b6113d9565b610c1f565b9050919050565b6000819050919050565b611418836113e3565b61142c61142482611405565b848454611387565b825550505050565b600090565b611441611434565b61144c81848461140f565b505050565b5b8181101561147057611465600082611439565b600181019050611452565b5050565b601f8211156114b55761148681611355565b61148f8461136a565b8101602085101561149e578190505b6114b26114aa8561136a565b830182611451565b50505b505050565b600082821c905092915050565b60006114d8600019846008026114ba565b1980831691505092915050565b60006114f183836114c7565b9150826002028217905092915050565b61150a82610c9e565b67ffffffffffffffff81111561152357611522610a20565b5b61152d8254611246565b611538828285611474565b600060209050601f83116001811461156b5760008415611559578287015190505b61156385826114e5565b8655506115cb565b601f19841661157986611355565b60005b828110156115a15784890151825560018201915060208501945060208101905061157c565b868310156115be57848901516115ba601f8916826114c7565b8355505b6001600288020188555050505b505050505050565b60006115df8385610ca9565b93506115ec838584610acc565b6115f583610a0f565b840190509392505050565b6000606082019050818103600083015261161b8186886115d3565b905061162a6020830185610c29565b6116376040830184610c29565b9594505050505056fea2646970667358221220420dd98d8c7c55d68f063222d496de3d21ea3672176716819115345642eee43964736f6c63430008130033",
  "linkReferences": {},
  "deployedLinkReferences": {}
}